{
	"_format": "hh-sol-artifact-1",
	"contractName": "JavPriceAggregator",
	"sourceName": "contracts/helpers/JavPriceAggregator.sol",
	"abi": [
		{
			"inputs": [],
			"stateMutability": "nonpayable",
			"type": "constructor"
		},
		{
			"inputs": [
				{
					"internalType": "address",
					"name": "target",
					"type": "address"
				}
			],
			"name": "AddressEmptyCode",
			"type": "error"
		},
		{
			"inputs": [
				{
					"internalType": "address",
					"name": "implementation",
					"type": "address"
				}
			],
			"name": "ERC1967InvalidImplementation",
			"type": "error"
		},
		{
			"inputs": [],
			"name": "ERC1967NonPayable",
			"type": "error"
		},
		{
			"inputs": [],
			"name": "EnforcedPause",
			"type": "error"
		},
		{
			"inputs": [],
			"name": "ExpectedPause",
			"type": "error"
		},
		{
			"inputs": [],
			"name": "FailedInnerCall",
			"type": "error"
		},
		{
			"inputs": [],
			"name": "InvalidInitialization",
			"type": "error"
		},
		{
			"inputs": [],
			"name": "NotInitializing",
			"type": "error"
		},
		{
			"inputs": [
				{
					"internalType": "address",
					"name": "owner",
					"type": "address"
				}
			],
			"name": "OwnableInvalidOwner",
			"type": "error"
		},
		{
			"inputs": [
				{
					"internalType": "address",
					"name": "account",
					"type": "address"
				}
			],
			"name": "OwnableUnauthorizedAccount",
			"type": "error"
		},
		{
			"inputs": [],
			"name": "UUPSUnauthorizedCallContext",
			"type": "error"
		},
		{
			"inputs": [
				{
					"internalType": "bytes32",
					"name": "slot",
					"type": "bytes32"
				}
			],
			"name": "UUPSUnsupportedProxiableUUID",
			"type": "error"
		},
		{
			"anonymous": false,
			"inputs": [
				{
					"indexed": true,
					"internalType": "address",
					"name": "_address",
					"type": "address"
				}
			],
			"name": "AddAllowedAddress",
			"type": "event"
		},
		{
			"anonymous": false,
			"inputs": [
				{
					"indexed": false,
					"internalType": "uint64",
					"name": "version",
					"type": "uint64"
				}
			],
			"name": "Initialized",
			"type": "event"
		},
		{
			"anonymous": false,
			"inputs": [
				{
					"indexed": true,
					"internalType": "address",
					"name": "executor",
					"type": "address"
				},
				{
					"indexed": false,
					"internalType": "uint256",
					"name": "at",
					"type": "uint256"
				}
			],
			"name": "Initialized",
			"type": "event"
		},
		{
			"anonymous": false,
			"inputs": [
				{
					"indexed": true,
					"internalType": "address",
					"name": "previousOwner",
					"type": "address"
				},
				{
					"indexed": true,
					"internalType": "address",
					"name": "newOwner",
					"type": "address"
				}
			],
			"name": "OwnershipTransferred",
			"type": "event"
		},
		{
			"anonymous": false,
			"inputs": [
				{
					"indexed": false,
					"internalType": "address",
					"name": "account",
					"type": "address"
				}
			],
			"name": "Paused",
			"type": "event"
		},
		{
			"anonymous": false,
			"inputs": [
				{
					"indexed": true,
					"internalType": "address",
					"name": "_address",
					"type": "address"
				}
			],
			"name": "RemoveAllowedAddress",
			"type": "event"
		},
		{
			"anonymous": false,
			"inputs": [
				{
					"indexed": true,
					"internalType": "address",
					"name": "_address",
					"type": "address"
				}
			],
			"name": "SetAdminAddress",
			"type": "event"
		},
		{
			"anonymous": false,
			"inputs": [
				{
					"indexed": false,
					"internalType": "address",
					"name": "account",
					"type": "address"
				}
			],
			"name": "Unpaused",
			"type": "event"
		},
		{
			"anonymous": false,
			"inputs": [
				{
					"indexed": true,
					"internalType": "bytes32",
					"name": "id",
					"type": "bytes32"
				},
				{
					"indexed": false,
					"internalType": "int64",
					"name": "price",
					"type": "int64"
				},
				{
					"indexed": false,
					"internalType": "uint64",
					"name": "publishTime",
					"type": "uint64"
				}
			],
			"name": "UpdatePriceFeed",
			"type": "event"
		},
		{
			"anonymous": false,
			"inputs": [
				{
					"indexed": true,
					"internalType": "address",
					"name": "implementation",
					"type": "address"
				}
			],
			"name": "Upgraded",
			"type": "event"
		},
		{
			"inputs": [],
			"name": "UPGRADE_INTERFACE_VERSION",
			"outputs": [
				{
					"internalType": "string",
					"name": "",
					"type": "string"
				}
			],
			"stateMutability": "view",
			"type": "function"
		},
		{
			"inputs": [
				{
					"internalType": "address",
					"name": "_address",
					"type": "address"
				}
			],
			"name": "addAllowedAddress",
			"outputs": [],
			"stateMutability": "nonpayable",
			"type": "function"
		},
		{
			"inputs": [],
			"name": "adminAddress",
			"outputs": [
				{
					"internalType": "address",
					"name": "",
					"type": "address"
				}
			],
			"stateMutability": "view",
			"type": "function"
		},
		{
			"inputs": [],
			"name": "getAllowedAddresses",
			"outputs": [
				{
					"internalType": "address[]",
					"name": "",
					"type": "address[]"
				}
			],
			"stateMutability": "view",
			"type": "function"
		},
		{
			"inputs": [
				{
					"internalType": "bytes32",
					"name": "id",
					"type": "bytes32"
				}
			],
			"name": "getPrice",
			"outputs": [
				{
					"components": [
						{
							"internalType": "int64",
							"name": "price",
							"type": "int64"
						},
						{
							"internalType": "uint64",
							"name": "conf",
							"type": "uint64"
						},
						{
							"internalType": "int32",
							"name": "expo",
							"type": "int32"
						},
						{
							"internalType": "uint64",
							"name": "publishTime",
							"type": "uint64"
						}
					],
					"internalType": "struct IJavPriceAggregator.Price",
					"name": "price",
					"type": "tuple"
				}
			],
			"stateMutability": "view",
			"type": "function"
		},
		{
			"inputs": [
				{
					"internalType": "address[]",
					"name": "_allowedAddresses_",
					"type": "address[]"
				}
			],
			"name": "initialize",
			"outputs": [],
			"stateMutability": "nonpayable",
			"type": "function"
		},
		{
			"inputs": [],
			"name": "owner",
			"outputs": [
				{
					"internalType": "address",
					"name": "",
					"type": "address"
				}
			],
			"stateMutability": "view",
			"type": "function"
		},
		{
			"inputs": [],
			"name": "pause",
			"outputs": [],
			"stateMutability": "nonpayable",
			"type": "function"
		},
		{
			"inputs": [],
			"name": "paused",
			"outputs": [
				{
					"internalType": "bool",
					"name": "",
					"type": "bool"
				}
			],
			"stateMutability": "view",
			"type": "function"
		},
		{
			"inputs": [],
			"name": "proxiableUUID",
			"outputs": [
				{
					"internalType": "bytes32",
					"name": "",
					"type": "bytes32"
				}
			],
			"stateMutability": "view",
			"type": "function"
		},
		{
			"inputs": [
				{
					"internalType": "address",
					"name": "_address",
					"type": "address"
				}
			],
			"name": "removeAllowedAddress",
			"outputs": [],
			"stateMutability": "nonpayable",
			"type": "function"
		},
		{
			"inputs": [],
			"name": "renounceOwnership",
			"outputs": [],
			"stateMutability": "nonpayable",
			"type": "function"
		},
		{
			"inputs": [
				{
					"internalType": "address",
					"name": "_address",
					"type": "address"
				}
			],
			"name": "setAdminAddress",
			"outputs": [],
			"stateMutability": "nonpayable",
			"type": "function"
		},
		{
			"inputs": [
				{
					"internalType": "address",
					"name": "newOwner",
					"type": "address"
				}
			],
			"name": "transferOwnership",
			"outputs": [],
			"stateMutability": "nonpayable",
			"type": "function"
		},
		{
			"inputs": [],
			"name": "unpause",
			"outputs": [],
			"stateMutability": "nonpayable",
			"type": "function"
		},
		{
			"inputs": [
				{
					"components": [
						{
							"internalType": "bytes32",
							"name": "id",
							"type": "bytes32"
						},
						{
							"internalType": "int64",
							"name": "price",
							"type": "int64"
						},
						{
							"internalType": "uint64",
							"name": "conf",
							"type": "uint64"
						},
						{
							"internalType": "int32",
							"name": "expo",
							"type": "int32"
						},
						{
							"internalType": "uint64",
							"name": "publishTime",
							"type": "uint64"
						}
					],
					"internalType": "struct JavPriceAggregator.UpdatePriceInfo[]",
					"name": "_priceInfo",
					"type": "tuple[]"
				}
			],
			"name": "updatePriceFeeds",
			"outputs": [],
			"stateMutability": "nonpayable",
			"type": "function"
		},
		{
			"inputs": [
				{
					"internalType": "address",
					"name": "newImplementation",
					"type": "address"
				},
				{
					"internalType": "bytes",
					"name": "data",
					"type": "bytes"
				}
			],
			"name": "upgradeToAndCall",
			"outputs": [],
			"stateMutability": "payable",
			"type": "function"
		}
	],
	"bytecode": "0x60a06040523060805234801561001457600080fd5b5061001d610022565b6100d4565b7ff0c57e16840df040f15088dc2f81fe391c3923bec73e23a9662efc9c229c6a00805468010000000000000000900460ff16156100725760405163f92ee8a960e01b815260040160405180910390fd5b80546001600160401b03908116146100d15780546001600160401b0319166001600160401b0390811782556040519081527fc7f505b2f371ae2175ee4913f4499e1f2633a7b5936321eed1cdaeb6115181d29060200160405180910390a15b50565b6080516118a56100fd60003960008181610bb801528181610be10152610d2701526118a56000f3fe6080604052600436106100fe5760003560e01c806381788e2b11610095578063a6ab810a11610064578063a6ab810a14610345578063ad3cb1cc14610365578063e808dc14146103a3578063f2fde38b146103c5578063fc6f9468146103e557600080fd5b806381788e2b146102c35780638456cb59146102e35780638da5cb5b146102f8578063a224cee71461032557600080fd5b80634f1ef286116100d15780634f1ef2861461024857806352d1902d1461025b5780635c975abb1461027e578063715018a6146102ae57600080fd5b80632c1e816d1461010357806331d98b3f146101255780633c9d93b8146102135780633f4ba83a14610233575b600080fd5b34801561010f57600080fd5b5061012361011e366004611394565b610405565b005b34801561013157600080fd5b506101c26101403660046113af565b6040805160808101825260008082526020820181905291810182905260608101919091525060009081526035602090815260409182902082516080810184529054600781900b82526001600160401b03600160401b8204811693830193909352600160801b810460030b93820193909352600160a01b90920416606082015290565b60405161020a9190815160070b81526020808301516001600160401b039081169183019190915260408084015160030b90830152606092830151169181019190915260800190565b60405180910390f35b34801561021f57600080fd5b5061012361022e366004611394565b6104a3565b34801561023f57600080fd5b50610123610533565b610123610256366004611436565b61058a565b34801561026757600080fd5b506102706105a9565b60405190815260200161020a565b34801561028a57600080fd5b506000805160206118508339815191525460ff16604051901515815260200161020a565b3480156102ba57600080fd5b506101236105c6565b3480156102cf57600080fd5b506101236102de366004611394565b6105d8565b3480156102ef57600080fd5b50610123610668565b34801561030457600080fd5b5061030d6106bd565b6040516001600160a01b03909116815260200161020a565b34801561033157600080fd5b506101236103403660046114fe565b6106eb565b34801561035157600080fd5b506101236103603660046115b1565b610845565b34801561037157600080fd5b50610396604051806040016040528060058152602001640352e302e360dc1b81525081565b60405161020a91906116d5565b3480156103af57600080fd5b506103b8610ae0565b60405161020a9190611708565b3480156103d157600080fd5b506101236103e0366004611394565b610af1565b3480156103f157600080fd5b5060005461030d906001600160a01b031681565b6000546001600160a01b031633148061043657506104216106bd565b6001600160a01b0316336001600160a01b0316145b61045b5760405162461bcd60e51b815260040161045290611755565b60405180910390fd5b600080546001600160a01b0319166001600160a01b038316908117825560405190917f030ff471e8e3d5a26cd9ee887eb024f145aaf27e12cd2f7bdcd14aeb40cf333191a250565b6000546001600160a01b03163314806104d457506104bf6106bd565b6001600160a01b0316336001600160a01b0316145b6104f05760405162461bcd60e51b815260040161045290611755565b6104fb603382610b2f565b506040516001600160a01b038216907fec953dd0c3cc0e610c4084a9ac18540acf1e88f392862dde4d74baa9f5aebc9e90600090a250565b6000546001600160a01b0316331480610564575061054f6106bd565b6001600160a01b0316336001600160a01b0316145b6105805760405162461bcd60e51b815260040161045290611755565b610588610b4d565b565b610592610bad565b61059b82610c52565b6105a58282610c5a565b5050565b60006105b3610d1c565b5060008051602061183083398151915290565b6105ce610d65565b6105886000610d97565b6000546001600160a01b031633148061060957506105f46106bd565b6001600160a01b0316336001600160a01b0316145b6106255760405162461bcd60e51b815260040161045290611755565b610630603382610e08565b506040516001600160a01b038216907f3606fcf39703633cb9c4be698c208c42df5a457031fcd4370c9bb3bd127f8f1290600090a250565b6000546001600160a01b031633148061069957506106846106bd565b6001600160a01b0316336001600160a01b0316145b6106b55760405162461bcd60e51b815260040161045290611755565b610588610e1d565b7f9016d09d72d40fdae2fd8ceac6b6234c7706214fd39c1cd1e609a0528c199300546001600160a01b031690565b7ff0c57e16840df040f15088dc2f81fe391c3923bec73e23a9662efc9c229c6a008054600160401b810460ff1615906001600160401b03166000811580156107305750825b90506000826001600160401b0316600114801561074c5750303b155b90508115801561075a575080155b156107785760405163f92ee8a960e01b815260040160405180910390fd5b845467ffffffffffffffff1916600117855583156107a257845460ff60401b1916600160401b1785555b60005b86518110156107ee576107db8782815181106107c3576107c361178c565b60200260200101516033610e0890919063ffffffff16565b50806107e6816117b8565b9150506107a5565b506107f7610e66565b831561083d57845460ff60401b19168555604051600181527fc7f505b2f371ae2175ee4913f4499e1f2633a7b5936321eed1cdaeb6115181d29060200160405180910390a15b505050505050565b610850603333610ed3565b6108af5760405162461bcd60e51b815260206004820152602a60248201527f4a6176507269636541676772656761746f723a206f6e6c7920616c6c6f7765646044820152692061646472657373657360b01b6064820152608401610452565b60005b81518110156105a55760405180608001604052808383815181106108d8576108d861178c565b60200260200101516020015160070b81526020018383815181106108fe576108fe61178c565b6020026020010151604001516001600160401b0316815260200183838151811061092a5761092a61178c565b60200260200101516060015160030b81526020018383815181106109505761095061178c565b6020026020010151608001516001600160401b03168152506035600084848151811061097e5761097e61178c565b6020908102919091018101515182528181019290925260409081016000208351815493850151928501516060909501516001600160401b03908116600160a01b0267ffffffffffffffff60a01b1963ffffffff909716600160801b02969096166bffffffffffffffffffffffff60801b19948216600160401b026fffffffffffffffffffffffffffffffff1990961691909216179390931791909116919091179190911790558151829082908110610a3857610a3861178c565b6020026020010151600001517f70700153da2c24e745d542ef977b3f866369319b44610369dd2e5815422c7aa6838381518110610a7757610a7761178c565b602002602001015160200151848481518110610a9557610a9561178c565b602002602001015160800151604051610ac692919060079290920b82526001600160401b0316602082015260400190565b60405180910390a280610ad8816117b8565b9150506108b2565b6060610aec6033610ef5565b905090565b610af9610d65565b6001600160a01b038116610b2357604051631e4fbdf760e01b815260006004820152602401610452565b610b2c81610d97565b50565b6000610b44836001600160a01b038416610f09565b90505b92915050565b610b55610ffc565b600080516020611850833981519152805460ff191681557f5db9ee0a495bf2e6ff9c91a7834c1ba4fdd244a5e8aa4e537bd38aeae4b073aa335b6040516001600160a01b03909116815260200160405180910390a150565b306001600160a01b037f0000000000000000000000000000000000000000000000000000000000000000161480610c3457507f00000000000000000000000000000000000000000000000000000000000000006001600160a01b0316610c28600080516020611830833981519152546001600160a01b031690565b6001600160a01b031614155b156105885760405163703e46dd60e11b815260040160405180910390fd5b610b2c610d65565b816001600160a01b03166352d1902d6040518163ffffffff1660e01b8152600401602060405180830381865afa925050508015610cb4575060408051601f3d908101601f19168201909252610cb1918101906117d1565b60015b610cdc57604051634c9c8ce360e01b81526001600160a01b0383166004820152602401610452565b6000805160206118308339815191528114610d0d57604051632a87526960e21b815260048101829052602401610452565b610d17838361102c565b505050565b306001600160a01b037f000000000000000000000000000000000000000000000000000000000000000016146105885760405163703e46dd60e11b815260040160405180910390fd5b33610d6e6106bd565b6001600160a01b0316146105885760405163118cdaa760e01b8152336004820152602401610452565b7f9016d09d72d40fdae2fd8ceac6b6234c7706214fd39c1cd1e609a0528c19930080546001600160a01b031981166001600160a01b03848116918217845560405192169182907f8be0079c531659141344cd1fd0a4f28419497f9722a3daafe3b4186f6b6457e090600090a3505050565b6000610b44836001600160a01b038416611082565b610e256110d1565b600080516020611850833981519152805460ff191660011781557f62e78cea01bee320cd4e420270b5ea74000d11b0c9f74754ebdbfc544b05a25833610b8f565b610e6e611102565b600080546001600160a01b03191633908117909155610e8c9061114b565b610e9461115c565b610e9c61116c565b60405143815233907f25ff68dd81b34665b5ba7e553ee5511bf6812e12adb4a7e2c0d9e26b3099ce799060200160405180910390a2565b6001600160a01b03811660009081526001830160205260408120541515610b44565b60606000610f0283611174565b9392505050565b60008181526001830160205260408120548015610ff2576000610f2d6001836117ea565b8554909150600090610f41906001906117ea565b9050808214610fa6576000866000018281548110610f6157610f6161178c565b9060005260206000200154905080876000018481548110610f8457610f8461178c565b6000918252602080832090910192909255918252600188019052604090208390555b8554869080610fb757610fb76117fd565b600190038181906000526020600020016000905590558560010160008681526020019081526020016000206000905560019350505050610b47565b6000915050610b47565b6000805160206118508339815191525460ff1661058857604051638dfc202b60e01b815260040160405180910390fd5b611035826111d0565b6040516001600160a01b038316907fbc7cd75a20ee27fd9adebab32041f755214dbc6bffa90cc0225b39da2e5c2d3b90600090a280511561107a57610d178282611235565b6105a56112ab565b60008181526001830160205260408120546110c957508154600181810184556000848152602080822090930184905584548482528286019093526040902091909155610b47565b506000610b47565b6000805160206118508339815191525460ff16156105885760405163d93c066560e01b815260040160405180910390fd5b7ff0c57e16840df040f15088dc2f81fe391c3923bec73e23a9662efc9c229c6a0054600160401b900460ff1661058857604051631afcd79f60e31b815260040160405180910390fd5b611153611102565b610b2c816112ca565b611164611102565b6105886112d2565b610588611102565b6060816000018054806020026020016040519081016040528092919081815260200182805480156111c457602002820191906000526020600020905b8154815260200190600101908083116111b0575b50505050509050919050565b806001600160a01b03163b60000361120657604051634c9c8ce360e01b81526001600160a01b0382166004820152602401610452565b60008051602061183083398151915280546001600160a01b0319166001600160a01b0392909216919091179055565b6060600080846001600160a01b0316846040516112529190611813565b600060405180830381855af49150503d806000811461128d576040519150601f19603f3d011682016040523d82523d6000602084013e611292565b606091505b50915091506112a28583836112f3565b95945050505050565b34156105885760405163b398979f60e01b815260040160405180910390fd5b610af9611102565b6112da611102565b600080516020611850833981519152805460ff19169055565b606082611308576113038261134f565b610f02565b815115801561131f57506001600160a01b0384163b155b1561134857604051639996b31560e01b81526001600160a01b0385166004820152602401610452565b5092915050565b80511561135f5780518082602001fd5b604051630a12f52160e11b815260040160405180910390fd5b80356001600160a01b038116811461138f57600080fd5b919050565b6000602082840312156113a657600080fd5b610b4482611378565b6000602082840312156113c157600080fd5b5035919050565b634e487b7160e01b600052604160045260246000fd5b60405160a081016001600160401b0381118282101715611400576114006113c8565b60405290565b604051601f8201601f191681016001600160401b038111828210171561142e5761142e6113c8565b604052919050565b6000806040838503121561144957600080fd5b61145283611378565b91506020808401356001600160401b038082111561146f57600080fd5b818601915086601f83011261148357600080fd5b813581811115611495576114956113c8565b6114a7601f8201601f19168501611406565b915080825287848285010111156114bd57600080fd5b80848401858401376000848284010152508093505050509250929050565b60006001600160401b038211156114f4576114f46113c8565b5060051b60200190565b6000602080838503121561151157600080fd5b82356001600160401b0381111561152757600080fd5b8301601f8101851361153857600080fd5b803561154b611546826114db565b611406565b81815260059190911b8201830190838101908783111561156a57600080fd5b928401925b8284101561158f5761158084611378565b8252928401929084019061156f565b979650505050505050565b80356001600160401b038116811461138f57600080fd5b600060208083850312156115c457600080fd5b82356001600160401b038111156115da57600080fd5b8301601f810185136115eb57600080fd5b80356115f9611546826114db565b81815260a0918202830184019184820191908884111561161857600080fd5b938501935b838510156116a55780858a0312156116355760008081fd5b61163d6113de565b85358152868601358060070b81146116555760008081fd5b81880152604061166687820161159a565b81830152506060808701358060030b81146116815760008081fd5b90820152608061169287820161159a565b908201528352938401939185019161161d565b50979650505050505050565b60005b838110156116cc5781810151838201526020016116b4565b50506000910152565b60208152600082518060208401526116f48160408501602087016116b1565b601f01601f19169190910160400192915050565b6020808252825182820181905260009190848201906040850190845b818110156117495783516001600160a01b031683529284019291840191600101611724565b50909695505050505050565b6020808252601a908201527f4261736555706772616461626c653a206f6e6c792061646d696e000000000000604082015260600190565b634e487b7160e01b600052603260045260246000fd5b634e487b7160e01b600052601160045260246000fd5b6000600182016117ca576117ca6117a2565b5060010190565b6000602082840312156117e357600080fd5b5051919050565b81810381811115610b4757610b476117a2565b634e487b7160e01b600052603160045260246000fd5b600082516118258184602087016116b1565b919091019291505056fe360894a13ba1a3210667c828492db98dca3e2076cc3735a920a3ca505d382bbccd5ed15c6e187e77e9aee88184c21f4f2182ab5827cb3b7e07fbedcd63f03300a2646970667358221220af09c50146d960841fc48a55776642e0dc7ff053de5c3a8dbf38e723d832dee064736f6c63430008140033",
	"linkReferences": {},
	"deployedLinkReferences": {}
}