{
	"_format": "hh-sol-artifact-1",
	"contractName": "JavPriceAggregator",
	"sourceName": "contracts/helpers/JavPriceAggregator.sol",
	"abi": [
		{
			"inputs": [],
			"stateMutability": "nonpayable",
			"type": "constructor"
		},
		{
			"inputs": [
				{
					"internalType": "address",
					"name": "target",
					"type": "address"
				}
			],
			"name": "AddressEmptyCode",
			"type": "error"
		},
		{
			"inputs": [],
			"name": "ECDSAInvalidSignature",
			"type": "error"
		},
		{
			"inputs": [
				{
					"internalType": "uint256",
					"name": "length",
					"type": "uint256"
				}
			],
			"name": "ECDSAInvalidSignatureLength",
			"type": "error"
		},
		{
			"inputs": [
				{
					"internalType": "bytes32",
					"name": "s",
					"type": "bytes32"
				}
			],
			"name": "ECDSAInvalidSignatureS",
			"type": "error"
		},
		{
			"inputs": [
				{
					"internalType": "address",
					"name": "implementation",
					"type": "address"
				}
			],
			"name": "ERC1967InvalidImplementation",
			"type": "error"
		},
		{
			"inputs": [],
			"name": "ERC1967NonPayable",
			"type": "error"
		},
		{
			"inputs": [],
			"name": "EnforcedPause",
			"type": "error"
		},
		{
			"inputs": [],
			"name": "ExpectedPause",
			"type": "error"
		},
		{
			"inputs": [],
			"name": "FailedInnerCall",
			"type": "error"
		},
		{
			"inputs": [],
			"name": "InvalidInitialization",
			"type": "error"
		},
		{
			"inputs": [],
			"name": "NotInitializing",
			"type": "error"
		},
		{
			"inputs": [
				{
					"internalType": "address",
					"name": "owner",
					"type": "address"
				}
			],
			"name": "OwnableInvalidOwner",
			"type": "error"
		},
		{
			"inputs": [
				{
					"internalType": "address",
					"name": "account",
					"type": "address"
				}
			],
			"name": "OwnableUnauthorizedAccount",
			"type": "error"
		},
		{
			"inputs": [],
			"name": "UUPSUnauthorizedCallContext",
			"type": "error"
		},
		{
			"inputs": [
				{
					"internalType": "bytes32",
					"name": "slot",
					"type": "bytes32"
				}
			],
			"name": "UUPSUnsupportedProxiableUUID",
			"type": "error"
		},
		{
			"anonymous": false,
			"inputs": [
				{
					"indexed": true,
					"internalType": "address",
					"name": "_address",
					"type": "address"
				}
			],
			"name": "AddAllowedSigner",
			"type": "event"
		},
		{
			"anonymous": false,
			"inputs": [
				{
					"indexed": true,
					"internalType": "address",
					"name": "to",
					"type": "address"
				},
				{
					"indexed": false,
					"internalType": "uint256",
					"name": "amount",
					"type": "uint256"
				}
			],
			"name": "ClaimFee",
			"type": "event"
		},
		{
			"anonymous": false,
			"inputs": [
				{
					"indexed": false,
					"internalType": "uint64",
					"name": "version",
					"type": "uint64"
				}
			],
			"name": "Initialized",
			"type": "event"
		},
		{
			"anonymous": false,
			"inputs": [
				{
					"indexed": true,
					"internalType": "address",
					"name": "executor",
					"type": "address"
				},
				{
					"indexed": false,
					"internalType": "uint256",
					"name": "at",
					"type": "uint256"
				}
			],
			"name": "Initialized",
			"type": "event"
		},
		{
			"anonymous": false,
			"inputs": [
				{
					"indexed": true,
					"internalType": "address",
					"name": "previousOwner",
					"type": "address"
				},
				{
					"indexed": true,
					"internalType": "address",
					"name": "newOwner",
					"type": "address"
				}
			],
			"name": "OwnershipTransferred",
			"type": "event"
		},
		{
			"anonymous": false,
			"inputs": [
				{
					"indexed": false,
					"internalType": "address",
					"name": "account",
					"type": "address"
				}
			],
			"name": "Paused",
			"type": "event"
		},
		{
			"anonymous": false,
			"inputs": [
				{
					"indexed": true,
					"internalType": "address",
					"name": "_address",
					"type": "address"
				}
			],
			"name": "RemoveAllowedSigner",
			"type": "event"
		},
		{
			"anonymous": false,
			"inputs": [
				{
					"indexed": true,
					"internalType": "address",
					"name": "_address",
					"type": "address"
				}
			],
			"name": "SetAdminAddress",
			"type": "event"
		},
		{
			"anonymous": false,
			"inputs": [
				{
					"indexed": true,
					"internalType": "uint256",
					"name": "_priceUpdateFee",
					"type": "uint256"
				}
			],
			"name": "SetPriceUpdateFee",
			"type": "event"
		},
		{
			"anonymous": false,
			"inputs": [
				{
					"indexed": false,
					"internalType": "address",
					"name": "account",
					"type": "address"
				}
			],
			"name": "Unpaused",
			"type": "event"
		},
		{
			"anonymous": false,
			"inputs": [
				{
					"indexed": true,
					"internalType": "bytes32",
					"name": "id",
					"type": "bytes32"
				},
				{
					"indexed": false,
					"internalType": "int64",
					"name": "price",
					"type": "int64"
				},
				{
					"indexed": false,
					"internalType": "uint64",
					"name": "publishTime",
					"type": "uint64"
				}
			],
			"name": "UpdatePriceFeed",
			"type": "event"
		},
		{
			"anonymous": false,
			"inputs": [
				{
					"indexed": true,
					"internalType": "address",
					"name": "implementation",
					"type": "address"
				}
			],
			"name": "Upgraded",
			"type": "event"
		},
		{
			"inputs": [],
			"name": "UPGRADE_INTERFACE_VERSION",
			"outputs": [
				{
					"internalType": "string",
					"name": "",
					"type": "string"
				}
			],
			"stateMutability": "view",
			"type": "function"
		},
		{
			"inputs": [
				{
					"internalType": "address",
					"name": "_address",
					"type": "address"
				}
			],
			"name": "addAllowedSigner",
			"outputs": [],
			"stateMutability": "nonpayable",
			"type": "function"
		},
		{
			"inputs": [],
			"name": "adminAddress",
			"outputs": [
				{
					"internalType": "address",
					"name": "",
					"type": "address"
				}
			],
			"stateMutability": "view",
			"type": "function"
		},
		{
			"inputs": [
				{
					"internalType": "address payable",
					"name": "_to",
					"type": "address"
				}
			],
			"name": "claimFee",
			"outputs": [],
			"stateMutability": "nonpayable",
			"type": "function"
		},
		{
			"inputs": [],
			"name": "getAllowedSigners",
			"outputs": [
				{
					"internalType": "address[]",
					"name": "",
					"type": "address[]"
				}
			],
			"stateMutability": "view",
			"type": "function"
		},
		{
			"inputs": [
				{
					"internalType": "bytes32",
					"name": "id",
					"type": "bytes32"
				}
			],
			"name": "getPrice",
			"outputs": [
				{
					"components": [
						{
							"internalType": "int64",
							"name": "price",
							"type": "int64"
						},
						{
							"internalType": "uint64",
							"name": "conf",
							"type": "uint64"
						},
						{
							"internalType": "int32",
							"name": "expo",
							"type": "int32"
						},
						{
							"internalType": "uint64",
							"name": "publishTime",
							"type": "uint64"
						}
					],
					"internalType": "struct IJavPriceAggregator.Price",
					"name": "price",
					"type": "tuple"
				}
			],
			"stateMutability": "view",
			"type": "function"
		},
		{
			"inputs": [
				{
					"internalType": "bytes32",
					"name": "id",
					"type": "bytes32"
				}
			],
			"name": "getPriceUnsafe",
			"outputs": [
				{
					"components": [
						{
							"internalType": "int64",
							"name": "price",
							"type": "int64"
						},
						{
							"internalType": "uint64",
							"name": "conf",
							"type": "uint64"
						},
						{
							"internalType": "int32",
							"name": "expo",
							"type": "int32"
						},
						{
							"internalType": "uint64",
							"name": "publishTime",
							"type": "uint64"
						}
					],
					"internalType": "struct IJavPriceAggregator.Price",
					"name": "price",
					"type": "tuple"
				}
			],
			"stateMutability": "view",
			"type": "function"
		},
		{
			"inputs": [
				{
					"internalType": "bytes[]",
					"name": "updateData",
					"type": "bytes[]"
				}
			],
			"name": "getUpdateFee",
			"outputs": [
				{
					"internalType": "uint256",
					"name": "",
					"type": "uint256"
				}
			],
			"stateMutability": "view",
			"type": "function"
		},
		{
			"inputs": [
				{
					"internalType": "uint256",
					"name": "_priceUpdateFee",
					"type": "uint256"
				},
				{
					"internalType": "address[]",
					"name": "_allowedSigners_",
					"type": "address[]"
				}
			],
			"name": "initialize",
			"outputs": [],
			"stateMutability": "nonpayable",
			"type": "function"
		},
		{
			"inputs": [],
			"name": "owner",
			"outputs": [
				{
					"internalType": "address",
					"name": "",
					"type": "address"
				}
			],
			"stateMutability": "view",
			"type": "function"
		},
		{
			"inputs": [],
			"name": "pause",
			"outputs": [],
			"stateMutability": "nonpayable",
			"type": "function"
		},
		{
			"inputs": [],
			"name": "paused",
			"outputs": [
				{
					"internalType": "bool",
					"name": "",
					"type": "bool"
				}
			],
			"stateMutability": "view",
			"type": "function"
		},
		{
			"inputs": [],
			"name": "priceUpdateFee",
			"outputs": [
				{
					"internalType": "uint256",
					"name": "",
					"type": "uint256"
				}
			],
			"stateMutability": "view",
			"type": "function"
		},
		{
			"inputs": [],
			"name": "proxiableUUID",
			"outputs": [
				{
					"internalType": "bytes32",
					"name": "",
					"type": "bytes32"
				}
			],
			"stateMutability": "view",
			"type": "function"
		},
		{
			"inputs": [
				{
					"internalType": "address",
					"name": "_address",
					"type": "address"
				}
			],
			"name": "removeAllowedSigner",
			"outputs": [],
			"stateMutability": "nonpayable",
			"type": "function"
		},
		{
			"inputs": [],
			"name": "renounceOwnership",
			"outputs": [],
			"stateMutability": "nonpayable",
			"type": "function"
		},
		{
			"inputs": [
				{
					"internalType": "address",
					"name": "_address",
					"type": "address"
				}
			],
			"name": "setAdminAddress",
			"outputs": [],
			"stateMutability": "nonpayable",
			"type": "function"
		},
		{
			"inputs": [
				{
					"internalType": "uint256",
					"name": "_priceUpdateFee",
					"type": "uint256"
				}
			],
			"name": "setPriceUpdateFee",
			"outputs": [],
			"stateMutability": "nonpayable",
			"type": "function"
		},
		{
			"inputs": [
				{
					"internalType": "address",
					"name": "newOwner",
					"type": "address"
				}
			],
			"name": "transferOwnership",
			"outputs": [],
			"stateMutability": "nonpayable",
			"type": "function"
		},
		{
			"inputs": [],
			"name": "unpause",
			"outputs": [],
			"stateMutability": "nonpayable",
			"type": "function"
		},
		{
			"inputs": [
				{
					"internalType": "bytes[]",
					"name": "updateData",
					"type": "bytes[]"
				}
			],
			"name": "updatePriceFeeds",
			"outputs": [],
			"stateMutability": "payable",
			"type": "function"
		},
		{
			"inputs": [
				{
					"internalType": "address",
					"name": "newImplementation",
					"type": "address"
				},
				{
					"internalType": "bytes",
					"name": "data",
					"type": "bytes"
				}
			],
			"name": "upgradeToAndCall",
			"outputs": [],
			"stateMutability": "payable",
			"type": "function"
		}
	],
	"bytecode": "0x60a080604052346100cc57306080527ff0c57e16840df040f15088dc2f81fe391c3923bec73e23a9662efc9c229c6a009081549060ff8260401c166100bd57506001600160401b036002600160401b031982821601610078575b6040516117db90816100d28239608051818181610bac0152610c610152f35b6001600160401b031990911681179091556040519081527fc7f505b2f371ae2175ee4913f4499e1f2633a7b5936321eed1cdaeb6115181d290602090a1388080610059565b63f92ee8a960e01b8152600490fd5b600080fdfe608060405260048036101561001357600080fd5b60003560e01c9081632c1e816d1461105e5781633068903e14610fd857816331d98b3f146109105781633316239414610f195781633f4ba83a14610e895781633fd01c7014610e6b5781634f1ef28614610c1357816352d1902d14610b995781635c975abb14610b6957816368ded31614610ae35781636ebc51e114610a48578163715018a6146109de5781638456cb591461094b5781638da5cb5b1461091557816396834ad314610910578163a920b78c146106af578163ad3cb1cc14610603578163d47eed45146105c0578163ef9e5e28146101e1578163f2fde38b146101b6578163f6aaca821461013f575063fc6f94681461011157600080fd5b3461013a57600036600319011261013a576000546040516001600160a01b039091168152602090f35b600080fd5b3461013a57602036600319011261013a573561017060018060a01b038060005416331490811561019b575b50611299565b806036557f96d384cf3559cdf077d7155f35a86768f989bd591deed894ce794178173ebac7600080a2005b9050600080516020611766833981519152541633148361016a565b3461013a57602036600319011261013a576101df6101d26110f2565b6101da61136d565b6112f9565b005b6101ea3661124d565b9060005b8281106101f757005b8060051b820135601e198336030181121561013a5782018035906001600160401b03821161013a57602001813603811361013a57610236913691611216565b9060418083511061056c5760405161024d816111a9565b818152606036602083013760005b8281106105405750835160401981019190821161052b5761027b826111fb565b9461028960405196876111da565b828652610295836111fb565b602087019390601f190136853760005b8181106104de575050506102eb6102f491865184207f19457468657265756d205369676e6564204d6573736167653a0a333200000000600052601c52603c6000206115b1565b909291926115ed565b6001600160a01b03166000908152603460205260409020541561048c5760a08480518101031261013a576040519160a08301908382106001600160401b03831117610479575060405251815260408301518060070b810361013a57806020830152610361606085016112e5565b80604084015260808501518060030b810361013a5761038a60a0600197836060880152016112e5565b908160808601526040519361039e856111a9565b60070b84526001600160401b036020850193168352604084019060030b81526001600160401b0360608501921682528451600052603560205260406000209351926001600160401b036fffffffffffffffff00000000000000008654925160401b16925160801b938160a01b905160a01b1694169063ffffffff60e01b1617179063ffffffff60801b16171790557f70700153da2c24e745d542ef977b3f866369319b44610369dd2e5815422c7aa660408251926001600160401b036080602083015160070b9201511682519182526020820152a2016101ee565b88634e487b7160e01b6000525260246000fd5b60405162461bcd60e51b8152602081890152602560248201527f4a6176507269636541676772656761746f723a20496e76616c6964207369676e604482015264617475726560d81b6064820152608490fd5b80860180871161051657600191906001600160f81b03199061050090866113a6565b511660001a61050f828b6113a6565b53016102a5565b60118c634e487b7160e01b6000525260246000fd5b601188634e487b7160e01b6000525260246000fd5b6001906001600160f81b031961055682886113a6565b511660001a61056582856113a6565b530161025b565b60405162461bcd60e51b8152602081880152602760248201527f4a6176507269636541676772656761746f723a20696e76616c69642064617461604482015266040d8cadccee8d60cb1b6064820152608490fd5b3461013a576105ce3661124d565b60365480820293925081159184041417156105ee57602082604051908152f35b601190634e487b7160e01b6000525260246000fd5b3461013a57600036600319011261013a576040519060408201908282106001600160401b0383111761069a575060405260058152602090640352e302e360dc1b60208201526040518092602082528251908160208401526000935b828510610681575050604092506000838284010152601f80199101168101030190f35b848101820151868601604001529381019385935061065e565b604190634e487b7160e01b6000525260246000fd5b3461013a57604036600319011261013a576024356001600160401b0380821161013a573660238301121561013a57818301359281841161069a5760058460051b9360209460405196610703878301896111da565b87526024868801918301019136831161013a57602401905b8282106108f1575050507ff0c57e16840df040f15088dc2f81fe391c3923bec73e23a9662efc9c229c6a009485549260ff8460401c1615948416938415806108ea575b600180961490816108e0575b1590816108d7575b506108c75767ffffffffffffffff19811660011788558493929190866108a8575b50356036556000925b610874575b505050506107ad611570565b600080546001600160a01b031916331790556107c7611570565b6107cf611570565b6107d8336112f9565b6107e0611570565b6107e8611570565b600080516020611786833981519152805460ff19169055610807611570565b6040514381527f25ff68dd81b34665b5ba7e553ee5511bf6812e12adb4a7e2c0d9e26b3099ce79833392a261083857005b7fc7f505b2f371ae2175ee4913f4499e1f2633a7b5936321eed1cdaeb6115181d29168ff000000000000000019815416905560405160018152a1005b80518310156108a35782821b81018601518493849161089b906001600160a01b0316611404565b50019261079c565b6107a1565b68ffffffffffffffffff19166801000000000000000117885588610793565b5060405163f92ee8a960e01b8152fd5b90501589610772565b303b15915061076a565b508561075e565b81356001600160a01b038116810361013a57815290860190860161071b565b611108565b3461013a57600036600319011261013a57600080516020611766833981519152546040516001600160a01b039091168152602090f35b3461013a57600036600319011261013a5760005461097d90336001600160a01b039182161490811561019b5750611299565b6000805160206117868339815191529081549060ff82166109cf575060019060ff19161790557f62e78cea01bee320cd4e420270b5ea74000d11b0c9f74754ebdbfc544b05a2586020604051338152a1005b60405163d93c066560e01b8152fd5b3461013a57600036600319011261013a576109f761136d565b60008051602061176683398151915280546001600160a01b031981169091556000906001600160a01b03167f8be0079c531659141344cd1fd0a4f28419497f9722a3daafe3b4186f6b6457e08280a3005b3461013a57602036600319011261013a57356001600160a01b038181169182900361013a5780610a859160005416331490811561019b5750611299565b47600081838115610ad9575b600092839283928392f115610acd5760207ff40b9ca28516abde647ef8ed0e7b155e16347eb4d8dd6eb29989ed2c0c3d27e891604051908152a2005b6040513d6000823e3d90fd5b6108fc9250610a91565b3461013a57602036600319011261013a57610afc6110f2565b6000546001600160a01b039190821633148015610b4f575b610b1d90611299565b16610b2781611486565b507f1c741b9fd9cad7614914abe6af2679d0efa2a25172d2acb19ab377f8c620bb34600080a2005b506000805160206117668339815191525482163314610b14565b3461013a57600036600319011261013a57602060ff60008051602061178683398151915254166040519015158152f35b3461013a57600036600319011261013a577f00000000000000000000000000000000000000000000000000000000000000006001600160a01b03163003610c045760206040517f360894a13ba1a3210667c828492db98dca3e2076cc3735a920a3ca505d382bbc8152f35b60405163703e46dd60e11b8152fd5b604036600319011261013a57610c276110f2565b906024356001600160401b03811161013a573660238201121561013a57610c579036906024818501359101611216565b6001600160a01b037f00000000000000000000000000000000000000000000000000000000000000008116308114908115610e3d575b50610e2c57610c9a61136d565b831690604051936352d1902d60e01b855260209081868681875afa60009681610dfd575b50610cdb57604051634c9c8ce360e01b8152808601859052602490fd5b84847f360894a13ba1a3210667c828492db98dca3e2076cc3735a920a3ca505d382bbc887fc9f76b5ec45e5cdef99837d7b6d2467235c1df8933c8ca56df5c35afa2c7d4448101610de65750833b15610dce5780546001600160a01b03191682179055604051907fbc7cd75a20ee27fd9adebab32041f755214dbc6bffa90cc0225b39da2e5c2d3b600080a2845115610db657505060008084846101df96519101845af4903d15610dad573d610d90816111fb565b90610d9e60405192836111da565b8152600081943d92013e611672565b60609250611672565b925092505034610dc257005b63b398979f60e01b8152fd5b604051634c9c8ce360e01b8152808401839052602490fd5b8360249160405191632a87526960e21b8352820152fd5b9096508281813d8311610e25575b610e1581836111da565b8101031261013a57519587610cbe565b503d610e0b565b60405163703e46dd60e11b81528390fd5b9050817f360894a13ba1a3210667c828492db98dca3e2076cc3735a920a3ca505d382bbc5416141585610c8d565b3461013a57600036600319011261013a576020603654604051908152f35b3461013a57600036600319011261013a57600054610ebb90336001600160a01b039182161490811561019b5750611299565b6000805160206117868339815191529081549060ff821615610f0a575060ff191690557f5db9ee0a495bf2e6ff9c91a7834c1ba4fdd244a5e8aa4e537bd38aeae4b073aa6020604051338152a1005b604051638dfc202b60e01b8152fd5b3461013a57600036600319011261013a57604051806033548083526020809301809160336000527f82a75bdeeae8604d839476ae9efd8b0e15aa447e21bfd7f41283bb54e22c9a829060005b86828210610fc4578686610f7b828803836111da565b604051928392818401908285525180915260408401929160005b828110610fa457505050500390f35b83516001600160a01b031685528695509381019392810192600101610f95565b835485529093019260019283019201610f65565b3461013a57602036600319011261013a57610ff16110f2565b6000546001600160a01b039190821633148015611044575b61101290611299565b1661101c81611404565b507f69a88b88f501c3248fea3f1daa73a843f640f93ae2869435772f972056120512600080a2005b506000805160206117668339815191525482163314611009565b3461013a57602036600319011261013a576110776110f2565b600054906001600160a01b0390338284161480156110d8575b61109990611299565b1680916bffffffffffffffffffffffff60a01b16176000557f030ff471e8e3d5a26cd9ee887eb024f145aaf27e12cd2f7bdcd14aeb40cf3331600080a2005b506000805160206117668339815191525482163314611090565b600435906001600160a01b038216820361013a57565b3461013a57602036600319011261013a5760806040806060815161112b816111a9565b6000918183809352826020820152828582015201526004358152603560205220815190611157826111a9565b548060070b928383526001600160401b039283602082018185851c16815281606085850194878b1c60030b8652019560a01c1685528351968752511660208601525160030b9084015251166060820152f35b608081019081106001600160401b038211176111c457604052565b634e487b7160e01b600052604160045260246000fd5b90601f801991011681019081106001600160401b038211176111c457604052565b6001600160401b0381116111c457601f01601f191660200190565b929192611222826111fb565b9161123060405193846111da565b82948184528183011161013a578281602093846000960137010152565b90602060031983011261013a576004356001600160401b039283821161013a578060238301121561013a57816004013593841161013a5760248460051b8301011161013a576024019190565b156112a057565b60405162461bcd60e51b815260206004820152601a60248201527f4261736555706772616461626c653a206f6e6c792061646d696e0000000000006044820152606490fd5b51906001600160401b038216820361013a57565b6001600160a01b039081169081156113545760008051602061176683398151915280546001600160a01b031981168417909155167f8be0079c531659141344cd1fd0a4f28419497f9722a3daafe3b4186f6b6457e0600080a3565b604051631e4fbdf760e01b815260006004820152602490fd5b600080516020611766833981519152546001600160a01b0316330361138e57565b60405163118cdaa760e01b8152336004820152602490fd5b9081518110156113b7570160200190565b634e487b7160e01b600052603260045260246000fd5b6033548110156113b75760336000527f82a75bdeeae8604d839476ae9efd8b0e15aa447e21bfd7f41283bb54e22c9a820190600090565b600081815260346020526040812054611481576033546801000000000000000081101561146d579082611459611442846001604096016033556113cd565b819391549060031b91821b91600019901b19161790565b905560335492815260346020522055600190565b634e487b7160e01b82526041600452602482fd5b905090565b600081815260346020526040812054909190801561156b576000199080820181811161155757603354908382019182116115435781810361150f575b50505060335480156114fb578101906114da826113cd565b909182549160031b1b19169055603355815260346020526040812055600190565b634e487b7160e01b84526031600452602484fd5b61152d61151e611442936113cd565b90549060031b1c9283926113cd565b90558452603460205260408420553880806114c2565b634e487b7160e01b86526011600452602486fd5b634e487b7160e01b85526011600452602485fd5b505090565b60ff7ff0c57e16840df040f15088dc2f81fe391c3923bec73e23a9662efc9c229c6a005460401c161561159f57565b604051631afcd79f60e31b8152600490fd5b81519190604183036115e2576115db92506020820151906060604084015193015160001a906116d5565b9192909190565b505060009160029190565b600481101561165c57806115ff575050565b600181036116195760405163f645eedf60e01b8152600490fd5b6002810361163a5760405163fce698f760e01b815260048101839052602490fd5b6003146116445750565b602490604051906335e2f38360e21b82526004820152fd5b634e487b7160e01b600052602160045260246000fd5b90611699575080511561168757805190602001fd5b604051630a12f52160e11b8152600490fd5b815115806116cc575b6116aa575090565b604051639996b31560e01b81526001600160a01b039091166004820152602490fd5b50803b156116a2565b91907f7fffffffffffffffffffffffffffffff5d576e7357a4501ddfe92f46681b20a0841161175957926020929160ff608095604051948552168484015260408301526060820152600092839182805260015afa1561174d5780516001600160a01b0381161561174457918190565b50809160019190565b604051903d90823e3d90fd5b5050506000916003919056fe9016d09d72d40fdae2fd8ceac6b6234c7706214fd39c1cd1e609a0528c199300cd5ed15c6e187e77e9aee88184c21f4f2182ab5827cb3b7e07fbedcd63f03300a264697066735822122047987e079747de05b9cd0bac1bfe32cb6d9ce7846598bc5a8cc5ca107cec7b0364736f6c63430008180033",
	"linkReferences": {},
	"deployedLinkReferences": {}
}